:020000040800F2
:1000000000500020811F0008190A00081B0A000880
:100010001D0A00081F0A0008210A0008000000004D
:10002000000000000000000000000000230A00089B
:10003000250A000800000000270A0008290A000815
:10004000C91F0008C91F0008C91F0008C91F0008F0
:10005000C91F0008C91F0008C91F0008C91F0008E0
:10006000C91F0008C91F0008C91F0008C91F0008D0
:10007000C91F0008C91F0008C91F0008C91F0008C0
:10008000C91F0008C91F0008C91F0008C91F0008B0
:10009000C91F0008C91F0008C91F0008C91F0008A0
:1000A000C91F0008C91F0008C91F0008C91F000890
:1000B000C91F0008C91F0008C91F0008C91F000880
:1000C000C91F0008C91F0008C91F0008C91F000870
:1000D000C91F0008C91F0008C91F0008C91F000860
:1000E000C91F0008C91F0008C91F00080000000040
:1000F0000000000000000000000000000000000000
:0C01000000000000000000005FF808F1A3
:10010C0010B5054C237833B9044B13B10448AFF345
:10011C0000800123237010BD34000020000000007B
:10012C002420000808B5034B1BB103490348AFF367
:10013C00008008BD000000003800002024200008CA
:10014C004FF0FF0C1CEAD0521EBF1CEAD15392EAAE
:10015C000C0F93EA0C0F6FD01A4480EA010C40028A
:10016C0018BF5FEA41211ED04FF0006343EA5010E4
:10017C0043EA5111A0FB01310CF00040B1F5000F26
:10018C003EBF490041EAD3715B0040EA010062F1D5
:10019C007F02FD2A1DD8B3F1004F40EBC25008BFBF
:1001AC0020F00100704790F0000F0CF0004C08BFDD
:1001BC0049024CEA502040EA51207F3AC2BFD2F1AA
:1001CC00FF0340EAC250704740F400004FF00003B8
:1001DC00013A5DDC12F1190FDCBF00F000407047F2
:1001EC00C2F10002410021FA02F1C2F1200200FA30
:1001FC0002FC5FEA310040F1000053EA4C0308BFF7
:10020C0020EADC70704792F0000F00F0004C02BF47
:10021C00400010F4000F013AF9D040EA0C0093F0C2
:10022C00000F01F0004C02BF490011F4000F013B1C
:10023C00F9D041EA0C018FE70CEAD15392EA0C0F8A
:10024C0018BF93EA0C0F0AD030F0004C18BF31F0F5
:10025C00004CD8D180EA010000F00040704790F0CB
:10026C00000F17BF90F0004F084691F0000F91F06F
:10027C00004F14D092EA0C0F01D142020FD193EA35
:10028C000C0F03D14B0218BF084608D180EA0100BD
:10029C0000F0004040F0FE4040F40000704740F099
:1002AC00FE4040F44000704780F0004002E000BF88
:1002BC0081F0004142001FBF5FEA410392EA030F45
:1002CC007FEA226C7FEA236C6AD04FEA1262D2EB8F
:1002DC001363C1BFD218414048404140B8BF5B4294
:1002EC00192B88BF704710F0004F40F4000020F02D
:1002FC007F4018BF404211F0004F41F4000121F043
:10030C007F4118BF494292EA030F3FD0A2F101028C
:10031C0041FA03FC10EB0C00C3F1200301FA03F1CA
:10032C0000F0004302D5494260EB4000B0F5000FED
:10033C0013D3B0F1807F06D340084FEA310102F1AC
:10034C000102FE2A51D2B1F1004F40EBC25008BF5E
:10035C0020F0010040EA03007047490040EB000028
:10036C00013A28BFB0F5000FEDD2B0FA80FCACF129
:10037C00080CB2EB0C0200FA0CF0AABF00EBC25056
:10038C0052421843BCBFD0401843704792F0000F44
:10039C0081F4000106BF80F400000132013BB5E797
:1003AC004FEA41037FEA226C18BF7FEA236C21D00D
:1003BC0092EA030F04D092F0000F08BF0846704772
:1003CC0090EA010F1CBF0020704712F07F4F04D140
:1003DC00400028BF40F00040704712F100723CBF53
:1003EC0000F50000704700F0004343F0FE4040F47D
:1003FC00000070477FEA226216BF08467FEA23633B
:10040C000146420206BF5FEA412390EA010F40F425
:10041C00800070474FF0000304E000BF10F0004371
:10042C0048BF40425FEA000C08BF704743F0964358
:10043C0001464FF000001CE050EA010208BF704773
:10044C004FF000030AE000BF50EA010208BF7047FA
:10045C0011F0004302D5404261EB41015FEA010C0F
:10046C0002BF84460146002043F0B64308BFA3F107
:10047C008053A3F50003BCFA8CF2083AA3EBC253E9
:10048C0010DB01FA02FC634400FA02FCC2F1200208
:10049C00BCF1004F20FA02F243EB020008BF20F03F
:1004AC000100704702F1200201FA02FCC2F12002A5
:1004BC0050EA4C0021FA02F243EB020008BF20EA9A
:1004CC00DC7070474FEA4002B2F1FE4F0FD34FF091
:1004DC009E03B3EB12620DD94FEA002343F00043A5
:1004EC0010F0004F23FA02F018BF404270474FF053
:1004FC000000704712F1610F01D1420205D110F0DA
:10050C00004008BF6FF0004070474FF0000070478C
:10051C0030B589B0002404940594069407941D4BBF
:10052C009A6942F010029A619A6902F010020092E4
:10053C00009A9A6942F020029A619A6902F02002AC
:10054C000192019A9A6942F004029A619A6902F046
:10055C0004020292029A9A6942F008029A619B691B
:10056C0003F008030393039B0B4D22464FF40051F9
:10057C00284600F027FC4FF4005304930123059305
:10058C0006940223079304A9284600F009FB09B03E
:10059C0030BD00BF001002400010014072B6FEE7F3
:1005AC0008B50A480A4B03600A4B4360002383607A
:1005BC00C3604FF48042026143618361C361036293
:1005CC0000F090FE00B908BDFFF7E8FF50000020D6
:1005DC0000540040801A060000B591B0282200217A
:1005EC0006A801F011FD00230193029303930493D9
:1005FC0005930223069301230A9310230B9306A859
:10060C0001F0BAF968B90F2301930021029103910B
:10061C000491059101A801F0E1FB20B911B05DF83E
:10062C0004FBFFF7BBFFFFF7B9FF000030B583B049
:10063C0000F020FAFFF7D0FFFFF76AFFFFF7B0FFDB
:10064C000D4B1B68ADF804301B0C8DF806300023E5
:10065C00019A0A490A4800F0BFF8322000F02EFA3D
:10066C00064D074C2946204600F037F9294620460E
:10067C0000F0EEF8F1E700BF3C200008000000207D
:10068C005000002000B585B01A4609784FF47A73F3
:10069C000293012301930092752200F0B3FF002016
:1006AC0005B05DF804FB00B587B08DF8172009780C
:1006BC004FF47A730293012301930DF11702009208
:1006CC00192200F0EDFE002007B05DF804FB0000DD
:1006DC002DE9F04387B080460D4614464FF47A79E5
:1006EC00CDF80890012601960DF1170700973346B7
:1006FC001B22097800F086FF00238DF81730E300E9
:10070C008DF81730CDF808900196009733461B22D0
:10071C002978404600F0C4FE032C05D8DFE804F02D
:10072C0002080B0E074B6B60002007B0BDE8F0838E
:10073C00054B6B60F8E7054B6B60F5E7044B6B60A2
:10074C00F2E700BF2D23FA3B2D237A3C90C1F93CF4
:10075C0090C1793D2DE9F04387B080460D46144693
:10076C004FF47A79CDF80890012601960DF1170710
:10077C00009733461C22097800F044FF00238DF8C3
:10078C001730E3008DF81730CDF8089001960097DC
:10079C0033461C222978404600F082FE032C05D8F3
:1007AC00DFE804F002080B0E074BAB60002007B02B
:1007BC00BDE8F083054BAB60F8E7054BAB60F5E7A4
:1007CC00044BAB60F2E700BFC3F51C3AC3F59C3A8F
:1007DC00C3F51C3BC3F59C3B70B588B005460E4673
:1007EC0005921C460DF11E032246FFF74BFF9DF8A8
:1007FC001E20682303FA04F4A24203D04FF0FF300A
:10080C0008B070BD00248DF81F404FF47A7302932A
:10081C00012301930DF11F0200926B2231782846BF
:10082C0000F03EFE9DF8142031462846FFF73BFFB2
:10083C009DF8152031462846FFF74AFF00237360C8
:10084C009DF8162031462846FFF784FF2046D7E74F
:10085C00F0B587B00C464FF47A73029306230193DC
:10086C0004AB009301234322097800F0CBFE9DF8E2
:10087C0010309DF8110040EA032000B2A0819DF8D1
:10088C0012309DF8136046EA032636B2E6819DF8D5
:10089C0014309DF8155045EA03252DB22582676862
:1008AC00FFF7BCFD3946FFF74BFCFFF70BFEA083AF
:1008BC003046FFF7B3FD3946FFF742FCFFF702FE67
:1008CC00E0832846FFF7AAFD3946FFF739FCFFF70E
:1008DC00F9FD2084002007B0F0BDF0B587B00C46C0
:1008EC004FF47A7302930623019304AB0093012314
:1008FC003B22097800F086FE9DF810309DF811001F
:10090C0040EA032000B260829DF812309DF813601B
:10091C0046EA032636B2A6829DF814309DF815508F
:10092C0045EA03252DB2E582A768FFF777FD394626
:10093C00FFF706FCFFF7C6FD60843046FFF76EFD3F
:10094C003946FFF7FDFBFFF7BDFDA0842846FFF7F6
:10095C0065FD3946FFF7F4FBFFF7B4FDE08400209A
:10096C0007B0F0BD82B00E4B9A6942F001029A6159
:10097C009A6902F001020092009ADA6942F0805200
:10098C00DA61DB6903F080530193019B054A5368DC
:10099C0023F0E06343F00073536002B0704700BF74
:1009AC00001002400000014010B586B000230293F5
:1009BC000393049305930268114B9A4201D006B03D
:1009CC0010BD104CA36943F00803A361A36903F0A5
:1009DC0008030093009BC023029312230393032369
:1009EC00059302A9084800F0DBF8E36943F400130F
:1009FC00E361E36903F400130193019BDFE700BF9C
:100A0C000054004000100240000C0140FEE7FEE7DD
:100A1C00FEE7FEE7FEE770477047704708B500F049
:100A2C003BF808BD7047000010B504460E4B187813
:100A3C004FF47A73B3FBF0F30C4A1068B0FBF3F08D
:100A4C0000F09AF868B90F2C01D901200AE00022B5
:100A5C0021464FF0FF3000F057F8054B1C6000208A
:100A6C0000E0012010BD00BF2C0000202800002059
:100A7C003000002008B5074A136843F010031360D8
:100A8C00032000F02FF80F20FFF7CEFFFFF76AFFCF
:100A9C00002008BD00200240034A1168034B1B785C
:100AAC000B441360704700BFA40000202C000020F2
:100ABC00014B1868704700BFA400002038B50446ED
:100ACC00FFF7F6FF0546B4F1FF3F02D0044B1B784D
:100ADC001C44FFF7EDFF401BA042FAD338BD00BF0A
:100AEC002C000020074AD36823F4E0631B041B0C82
:100AFC00000200F4E060034343F0BF6343F40033AF
:100B0C00D360704700ED00E000B5194BDB68C3F310
:100B1C000223C3F1070CBCF1040F28BF4FF0040CE7
:100B2C0003F1040EBEF1060F18D9033B4FF0FF3E44
:100B3C000EFA0CFC21EA0C0199400EFA03F322EA9E
:100B4C000303194300280BDB0901C9B200F1604013
:100B5C0000F5614080F800135DF804FB0023E5E725
:100B6C0000F00F000901C9B2024B1954F4E700BFA1
:100B7C0000ED00E014ED00E00138B0F1807F0BD205
:100B8C004FF0E0235861054AF02182F82310002031
:100B9C00986107221A6170470120704700ED00E050
:100BAC0070B582B00024A446A6E0804DAA4210D0B5
:100BBC0007D97F4DAA420CD005F58035AA4208D042
:100BCC0013E0A5F58015AA4203D005F57025AA42BD
:100BDC0007D18A68002A58D0012A51D043610824D1
:100BEC0003E0A5F58015AA42F3D0BEF1FF0F4ED855
:100BFC000646BEF1FF0F4CD84FEA8C0233680F2526
:100C0C00954023EA050304FA02F2134333604B6860
:100C1C0013F0805F6ED0674B9A6942F001029A61C3
:100C2C009B6903F001030193019B4FEA9C02951C05
:100C3C00614B53F825600CF003039D000F23AB4070
:100C4C0026EA03065D4B984229D003F5806398424F
:100C5C0000F08E8003F58063984200F08B8003F5E2
:100C6C008063984219D004231AE0CC68BDE7CC68A5
:100C7C000434BAE7CC680834B7E7CC680C34B4E772
:100C8C0003610824B1E70024AFE70424ADE7061D97
:100C9C00AFE7ACF108029200B0E7032300E00023B9
:100CAC00AB4033430232444D45F822304B6813F4C9
:100CBC00801F61D0424A936843EA0E0393604B68ED
:100CCC0013F4001F5ED03E4AD36843EA0E03D36090
:100CDC004B6813F4003F5BD0394A536843EA0E0368
:100CEC0053604B6813F4803F58D0354A136843EA7D
:100CFC000E0313600CF1010C0A6832FA0CF353D09A
:100D0C00012303FA0CF302EA030E33EA0202F1D1D7
:100D1C004A68122A3FF649AF122A3FF666AF01A580
:100D2C0055F822F0DF0B0008770C0008810C000846
:100D3C00930C0008F70B0008F70B0008F70B0008E2
:100D4C00F70B0008F70B0008F70B0008F70B00086F
:100D5C00F70B0008F70B0008F70B0008F70B00085F
:100D6C00F70B0008F70B00087B0C0008870C000839
:100D7C00012395E7022393E7114A936823EA0E03B4
:100D8C0093609CE70E4AD36823EA0E03D3609FE777
:100D9C000B4A536823EA0E035360A2E7084A136810
:100DAC0023EA0E031360A5E702B070BD0000221009
:100DBC00000031100010024000000140000801400A
:100DCC00000401400AB101617047090401617047D8
:100DDC0003685A6912F4806F01D1002070476FF4D8
:100DEC0080625A6100230363202280F83D2080F842
:100DFC003E30026C42F00402026480F83C30012068
:100E0C0070472DE9F04106460C46174698463BE0E4
:100E1C00FFF74EFE069BC01A404502D8B8F1000FF2
:100E2C0032D1012D18D033689B6924EA03039BB29D
:100E3C00B3FA83F35B099F4226D10023336320224C
:100E4C0086F83D2086F83E30326C42F02002326447
:100E5C0086F83C30012027E033685B6924EA030301
:100E6C009BB2B3FA83F35B09E5E733685B6924EA69
:100E7C00030C1FFA8CFCBCFA8CFC4FEA5C1C67451B
:100E8C0011D1B8F1FF3FC3D1C4F30745012DECD00C
:100E9C0033689B6924EA030C1FFA8CFCBCFA8CFCAB
:100EAC004FEA5C1CEBE70020BDE8F0812DE9F8432C
:100EBC0005460E469046994653E01A6842F4007275
:100ECC001A602B686FF480625A6100232B63202216
:100EDC0085F83D2085F83E302A6C42F004022A64E5
:100EEC0085F83C3001204AE0FFF7E2FDA0EB090059
:100EFC00404502D8B8F1000F33D1012F17D02B6821
:100F0C009B6926EA03039BB2003B18BF012343B342
:100F1C0000232B63202285F83D2085F83E302A6C77
:100F2C0042F020022A6485F83C30012027E02B682F
:100F3C005B6926EA03039BB2003B18BF0123E6E77B
:100F4C002B689C6926EA0404A4B2003C18BF012457
:100F5C00A4B12B685A6912F4806FAED1B8F1FF3F7F
:100F6C00C2D1C6F30747012FEAD12B685C6926EA88
:100F7C000404A4B2003C18BF0124E9E70020BDE83A
:100F8C00F88370B504460D46164623685B6913F06A
:100F9C00800F21D12046FFF71BFFF8B9B5F1FF3FB9
:100FAC00F3D0FFF785FD801BA84201D8002DECD1B2
:100FBC0023685B6913F0800FE7D1002323632022A1
:100FCC0084F83D2084F83E30226C42F020022264EA
:100FDC0084F83C30012000E0002070BD0120FCE7CB
:100FEC002DE9F04385B004460D4691461F46DDF8C9
:100FFC0030800D9E0368196841F480711960009669
:10100C00434600224FF00111FFF7FBFE60B9236845
:10101C0005F0FE051D613346424626492046FFF782
:10102C0045FF68B1012008E023681B6813F4807F3A
:10103C0002D04FF400732364032005B0BDE8F083A5
:10104C000023039323685A6903929B690393039BC0
:10105C00324641462046FFF794FF30B9012F0FD19D
:10106C0023685FFA89F61E61E7E7236C042B01D035
:10107C000120E2E72268136843F400731360F7E77A
:10108C0023684FEA19221A61324641462046FFF77F
:10109C0078FF20B923685FFA89F61E61CDE7236CCF
:1010AC00042B01D00120C8E72268136843F40073B5
:1010BC001360F7E7020001002DE9F04784B0044605
:1010CC000D46164699460C9FDDF83480026813686D
:1010DC0043F4806313600368196841F480711960EC
:1010EC00CDF800803B4600224FF00111FFF789FE3E
:1010FC0070B95FFA85FA236805F0FE051D61434659
:10110C003A4641492046FFF7D1FE68B1012008E07C
:10111C0023681B6813F4807F02D04FF400732364A0
:10112C00032004B0BDE8F0870023039323685A69B9
:10113C0003929B690393039B424639462046FFF773
:10114C0020FF80B9B9F1010F18D12368F6B21E61E6
:10115C00424639462046FFF714FF68B3236C042B34
:10116C0024D00120DDE7236C042B01D00120D8E72B
:10117C002268136843F400731360F7E72368320A9C
:10118C001A61424639462046FFF7FBFE18B9236820
:10119C00F6B21E61DCE7236C042B01D00120C0E702
:1011AC002268136843F400731360F7E7226813682E
:1011BC0043F400731360D4E72268136843F480731C
:1011CC001360CDF800803B4600224FF00111204601
:1011DC00FFF717FE68B922684AF001031361434612
:1011EC003A4609492046FFF761FE002899D00120B4
:1011FC0097E723681B6813F4807F02D04FF40073C9
:10120C00236403208DE700BF0200010070B5044683
:10121C000D46164623685B6913F0040F21D1204656
:10122C00FFF7D6FDF8B9B5F1FF3FF3D0FFF740FC5F
:10123C00801BA84201D8002DECD123685B6913F008
:10124C00040FE7D100232363202284F83D2084F887
:10125C003E30226C42F02002226484F83C300120A3
:10126C0000E0002070BD0120FCE770B504460D467F
:10127C00164614E06FF010025A61002323632022FB
:10128C0084F83D2084F83E30226C226484F83C3093
:10129C00012025E023685B6913F0400F10D0236810
:1012AC00586910F0400F1AD1586910F0100FE1D1A5
:1012BC00FFF7FEFB801BA842ECD8002DEFD1E9E72D
:1012CC0000232363202284F83D2084F83E30226CD6
:1012DC0042F02002226484F83C30012000E000201F
:1012EC0070BD0000002800F0CC8070B5044690F86A
:1012FC003D30002B77D0242384F83D3022681368CE
:10130C0023F0010313602268136843F40043136055
:10131C002268136823F40043136000F01BFE62681C
:10132C005A4B9A4264D85A4B98428CBF00230123E3
:10133C00002B40F0A8805749A1FB00318B0C25688D
:10134C006A6822F03F0242EA91426A6021680A6AA6
:10135C0022F03F0266684D4DAE424FD80133134325
:10136C000B622168CA6922F44F4222F0FF026668C0
:10137C00464B9E424CD8431E7600B3FBF6F301332A
:10138C0040F6FC70034278D0C3F30B031343CB61DC
:10139C0021680B6823F0C003E269206A02431343FF
:1013AC000B6021688B6823F4034323F0FF0322694D
:1013BC00E068024313438B602168CB6823F0FF0382
:1013CC006269A06902431343CB602268136843F03F
:1013DC000103136000202064202384F83D30206337
:1013EC0084F83E0070BD80F83C30FFF7DDFA82E7F0
:1013FC00294B98428CBF0023012399E74FF4967533
:10140C0005FB03F3254DA5FB03539B090133A6E70D
:10141C00A368BBB9451E06EB460CB5FBFCF50135C4
:10142C00C5F30B05B5FA85F56D0945BBC3B9013894
:10143C0006EB4603B0FBF3F30133C3F30B0343F4A6
:10144C000043A3E7451E06EB860C0CEB8C0CB5FB9E
:10145C00FCF50135C5F30B05B5FA85F56D09E4E727
:10146C00013806EB860303EB8303B0FBF3F3013384
:10147C00C3F30B0343F4404388E7042386E70123BB
:10148C0084E7012070470120ACE700BFA086010073
:10149C007F841E0083DE1B43FF083D00D34D62108A
:1014AC002DE9F04383B004460F46904699460C9EB6
:1014BC00FFF7FEFA054694F83D00C0B2202803D091
:1014CC00022003B0BDE8F0830095192301224B499B
:1014DC002046FFF796FC002840F0898094F83C30B9
:1014EC00012B00F08680012384F83C3023681A68B5
:1014FC0012F0010F03D11A6842F001021A6022683F
:10150C00136823F400631360212384F83D304023D7
:10151C0084F83E30002323640A9B6362BDF82C30B0
:10152C006385638D2385364BE362019500964B46AC
:10153C00424639462046FFF753FD00285BD1238DE8
:10154C00002B35D02A4631462046FFF71AFD20BB2A
:10155C00626A236812781A61626A531C6362218D75
:10156C00013989B22185638D9BB2013B9BB26385A6
:10157C002368586910F0040FE1D00029DFD05278AD
:10158C001A61636A01336362238D013B2385638D8A
:10159C009BB2013B9BB26385D1E7236C042B01D03A
:1015AC0001208EE72268136843F400731360F7E799
:1015BC002A4631462046FFF729FE50B1236C042BF6
:1015CC0001D001207DE72268136843F40073136097
:1015DC00F7E72268136843F400731360202384F840
:1015EC003D30002384F83E3084F83C3069E702201B
:1015FC0067E7022065E7012063E700BF02001000E7
:10160C000000FFFF2DE9F04389B004460F469046D9
:10161C009946129E00230793FFF74AFA054694F861
:10162C003D00C0B2202804D00227384609B0BDE8DE
:10163C00F08300951923012281492046FFF7E1FB35
:10164C00002840F0728194F83C30012B00F06F813F
:10165C00012384F83C3023681A6812F0010F03D17F
:10166C001A6842F001021A602268136823F40063BE
:10167C001360222384F83D30402384F83E3000234D
:10168C002364109B6362BDF844306385638D2385AE
:10169C006C4BE362019500964B4642463946204618
:1016AC00FFF70AFD0746002840F04381238D5BB904
:1016BC00039323685A6903929A690392039A1A68EE
:1016CC0042F400721A60EDE0012B0FD0022B21D0F6
:1016DC002268136843F48063136000230693236825
:1016EC005A6906929B690693069BDBE02268136895
:1016FC0023F48063136072B60023049323685A6941
:10170C0004929A690492049A1A6842F400721A605C
:10171C0062B6C7E02268136843F40063136072B6C4
:10172C000023059323685A6905929A690592059AD4
:10173C001A6822F480621A6062B6B3E02A46314617
:10174C002046FFF792FD002840F0F58023681A69C7
:10175C00636A1A70636A01336362238D013B2385CC
:10176C00638D9BB2013B9BB263859BE00095334636
:10177C00002235492046FFF744FB002840F0DF806B
:10178C002268136823F48063136072B623681A69A5
:10179C00636A1A70636A01336362238D013B23858C
:1017AC00638D9BB2013B9BB26385284B1B68DB08A6
:1017BC00274AA2FB03231B0A03EB8303C3EBC303DC
:1017CC000793079B013B0793079B002B28D02368AB
:1017DC005A6912F0040FF4D01A6842F400721A60BD
:1017EC0023681A69636A1A70636A01336362238D12
:1017FC00013B2385638D9BB2013B9BB2638562B633
:10180C0023681A69636A1A70636A01336362238DF1
:10181C00013B2385638D9BB2013B9BB2638541E009
:10182C002363202284F83D2084F83E30226C42F061
:10183C002002226462B684F83C300127F5E600BF32
:10184C00020010000000FFFF04000100280000202F
:10185C0089B5F8142A4631462046FFF706FD0028C4
:10186C006FD123681A69636A1A70626A531C6362C7
:10187C00238D013B2385638D9BB2013B9BB263851A
:10188C002368596911F0040F0CD01B695370636AFB
:10189C0001336362238D013B2385638D9BB2013B36
:1018AC009BB26385238D002B36D0032BD2D8012B12
:1018BC003FF444AF022B7FF459AF0095334600221E
:1018CC0021492046FFF79DFA002836D172B62268CE
:1018DC00136843F40073136023681A69636A1A70FF
:1018EC00636A01336362238D013B2385638D9BB255
:1018FC00013B9BB2638562B623681A69636A1A70EE
:10190C00636A01336362238D013B2385638D9BB234
:10191C00013B9BB26385C5E7202384F83D3000234F
:10192C0084F83E3084F83C307FE602277DE60227BF
:10193C007BE6012779E6012777E6012775E6012783
:10194C0073E6012771E600BF0400010082B0084B6A
:10195C001B68084AA2FB03235B0A00FB03F30193F9
:10196C0000BF019B5A1E0192002BF9D102B07047A7
:10197C0028000020D34D6210002800F0F18170B5D2
:10198C0082B00446036813F0010F2CD0994B5B68AE
:10199C0003F00C03042B1DD0964B5B6803F00C0377
:1019AC00082B12D06368B3F5803F41D0002B55D182
:1019BC0003F1804303F504331A6822F480321A6071
:1019CC001A6822F480221A6037E08A4B5B6813F4A1
:1019DC00803FE7D0874B1B6813F4003F03D063684C
:1019EC00002B00F0BF81236813F0020F75D0814BE0
:1019FC005B6813F00C0F5FD07E4B5B6803F00C033D
:101A0C00082B54D02369002B00F08A807A4B0122DA
:101A1C001A60FFF74DF80546764B1B6813F0020F62
:101A2C0075D1FFF745F8401B0228F5D903209EE13C
:101A3C00704A136843F480331360636843B3FFF751
:101A4C0037F805466B4B1B6813F4003FCBD1FFF7FF
:101A5C002FF8401B6428F5D9032088E1B3F5A02F9B
:101A6C0009D0644B1A6822F480321A601A6822F486
:101A7C0080221A60E1E703F18043A3F53C331A6836
:101A8C0042F480221A601A6842F480321A60D4E759
:101A9C00FFF70EF80546574B1B6813F4003FA2D016
:101AAC00FFF706F8401B6428F5D903205FE1514B82
:101ABC005B6813F4803FA5D14E4B1B6813F0020FEB
:101ACC0003D02369012B40F04F814A4A136823F05D
:101ADC00F803616943EAC1031360236813F0080F2C
:101AEC0033D0A369002B5CD0434B0122C3F8802474
:101AFC00FEF7DEFF05463F4B5B6A13F0020F21D168
:101B0C00FEF7D6FF401B0228F5D903202FE1394AF6
:101B1C00136823F0F803616943EAC1031360DCE73F
:101B2C00354B00221A60FEF7C3FF0546314B1B688C
:101B3C0013F0020FD1D0FEF7BBFF401B0228F5D9E2
:101B4C00032014E10120FFF701FF236813F0040FB9
:101B5C0000F09680274BDB6913F0805F34D1254B66
:101B6C00DA6942F08052DA61DB6903F08053019349
:101B7C00019B0125214B1B6813F4807F26D0E36861
:101B8C00012B3DD0002B53D103F1804303F50433DB
:101B9C001A6A22F001021A621A6A22F004021A620C
:101BAC0033E0154B0022C3F88024FEF781FF054675
:101BBC00104B5B6A13F0020FC7D0FEF779FF401B86
:101BCC000228F5D90320D2E00025D3E70B4A13688D
:101BDC0043F480731360FEF76BFF0646074B1B68DC
:101BEC0013F4807FCBD1FEF763FF801B6428F5D9FB
:101BFC000320BCE000100240000042420070004094
:101C0C005F4A136A43F001031362E36833B3FEF7D0
:101C1C004FFF06465A4B1B6A13F0020F2FD1FEF7EB
:101C2C0047FF801B41F288339842F3D903209EE092
:101C3C00052B09D0524B1A6A22F001021A621A6A59
:101C4C0022F004021A62E0E74D4B1A6A42F00402D9
:101C5C001A621A6A42F001021A62D6E7FEF728FFEE
:101C6C000646474B1B6A13F0020F08D0FEF720FF05
:101C7C00801B41F288339842F3D9032077E0E5B911
:101C8C00E369002B72D03E4A526802F00C02082A1B
:101C9C0056D0022B17D03B4B00221A66FEF708FFDA
:101CAC000446374B1B6813F0007F47D0FEF700FF4C
:101CBC00001B0228F5D9032059E0314AD36923F0DF
:101CCC008053D361DCE72F4B00221A66FEF7F0FE3F
:101CDC0005462B4B1B6813F0007F06D0FEF7E8FE81
:101CEC00401B0228F5D9032041E0236AB3F5803F5D
:101CFC001AD023494B6823F47413226A606A024396
:101D0C0013434B601F4B01221A66FEF7D1FE0446AB
:101D1C001B4B1B6813F0007F0ED1FEF7C9FE001B96
:101D2C000228F5D9032022E0154A536823F4003326
:101D3C00A1680B435360DCE7002018E0002016E09C
:101D4C00012B16D00E4B5B6803F48031226A914252
:101D5C0011D103F47013626A93420ED1002006E095
:101D6C0001207047012002E0012000E0002002B0B9
:101D7C0070BD0120FBE70120F9E70120F7E700BF68
:101D8C0000100240000042420F4B5B6803F00C0253
:101D9C00082A01D00D487047C3F383420C49885C74
:101DAC0013F4803F0BD0084B5B68C3F34043094AE4
:101DBC00D35C064A02FB00F0B0FBF3F07047064B15
:101DCC0003FB00F0704700BF0010024000127A00C5
:101DDC00582000086820000800093D00002800F089
:101DEC00A08070B50D460446524B1B6803F00703E8
:101DFC008B420BD24F4A136823F007030B4313603B
:101E0C00136803F007038B4240F08D80236813F0B6
:101E1C00020F17D013F0040F04D0474A536843F451
:101E2C00E0635360236813F0080F04D0424A5368F0
:101E3C0043F460535360404A536823F0F003A168A5
:101E4C000B435360236813F0010F31D06368012BEF
:101E5C0020D0022B25D0384A126812F0020F64D021
:101E6C0035494A6822F0030213434B60FEF720FE0B
:101E7C000646314B5B6803F00C036268B3EB820FD0
:101E8C0016D0FEF715FE801B41F288339842F0D92C
:101E9C00032045E0284A126812F4003FE0D10120EB
:101EAC003EE0254A126812F0007FD9D1012037E0BC
:101EBC00204B1B6803F00703AB420AD91D4A136879
:101ECC0023F007032B431360136803F00703AB42A3
:101EDC002DD1236813F0040F06D0174A536823F44E
:101EEC00E063E1680B435360236813F0080F07D0DD
:101EFC00114A536823F46053216943EAC1035360C8
:101F0C00FFF742FF0C4B5B68C3F303130B4AD35C24
:101F1C00D8400B4B18600B4B1868FEF785FD002062
:101F2C0070BD012070470120FAE70120F8E701207D
:101F3C00F6E700BF002002400010024040200008DD
:101F4C002800002030000020014B1868704700BFAB
:101F5C002800002008B5FFF7F7FF044B5B68C3F3BC
:101F6C000223034AD35CD84008BD00BF00100240D6
:101F7C0050200008FEF756FD0B480C490C4A002374
:101F8C0002E0D458C4500433C4188C42F9D3094A23
:101F9C00094C002301E013600432A242FBD300F091
:101FAC000FF8FEF743FB70470000002034000020C0
:101FBC007420000834000020A8000020FEE7000078
:101FCC0070B500260C4D0D4C641BA410A64209D113
:101FDC0000F022F800260A4D0A4C641BA410A642FD
:101FEC0005D170BD55F8043B98470136EEE755F81E
:101FFC00043B98470136F2E76C2000086C2000087F
:10200C006C2000087020000803460244934200D163
:10201C00704703F8011BF9E7F8B500BFF8BC08BC22
:10202C009E467047F8B500BFF8BC08BC9E4670478A
:10203C000700010000000000000000000102030482
:10204C00060708090000000001020304020304054E
:10205C00060708090A0B0C0D0E0F101001020000E8
:04206C003101000836
:042070000D01000856
:10207400D00000000000000000000000000000008C
:10208400000000000000000000000000000000004C
:1020940000000000000000000024F4000100000023
:0420A4001000000028
:0400000508001F814F
:00000001FF
